:020000020000FC
:0200000064C0DA
:040004000C948501D2
:02005C0088C159
:02005000C0C12D
:02003C00F1C110
:0200B40013C275
:1000C80056C281E28EBF8FEF8DBF82E080936900B8
:1000D8008DB381608DBB80E084BD82E085BD81E009
:1000E80080936E0080E08093800082E0809381009E
:1000F80081E080936F0080E08093B00082E080937D
:10010800B10081E0809370008FEF84B987B983E0F4
:1001180080628093900081E0809391008FEF8DB989
:1001280080E080939A0080939B0080E08093A000F9
:1001380082E08093A10081E08093720080E0809348
:10014800200182E08093210181E08093730080EF99
:1001580080930A018FEF80BB81B9882781BB82B960
:1001680088E08EB98F939F9390E0903009F488E3EC
:1001780074D683D69F918F919AD68F939F9390E050
:10018800903009F488E369D678D69F918F9186D606
:100198008F939F9390E0903009F488E35ED66DD6F4
:1001A8009F918F918F939F9390E0903009F488E30B
:1001B80054D663D69F918F918F939F9390E0903000
:1001C80009F488E04AD659D69F918F918F939F93CF
:1001D80090E0903009F481E040D64FD69F918F91FE
:1001E8008F939F9390E0903009F486E036D645D6F9
:1001F8009F918F918F939F9390E0903009F48CE0BA
:100208002CD63BD69F918F912227332755274427F9
:100218008F93CF93DF93C4E2D2E0882789938883B2
:10022800DF91CF918F918F93CF93DF93C6E2D2E086
:10023800882789938883DF91CF918F918F93CF936C
:10024800DF93C0E2D2E0882789938883DF91CF913A
:100258008F91882780931D0280931E028093160237
:1002680080931702809318028093280280931902C2
:100278008093220280931F02882780930002809334
:100288000102809302028093030280930402809308
:1002980005028093060280930702809308028093E8
:1002A80009028FEF80930A0280930B0280930C025D
:1002B80080930D0280930E0280930F0280931002A8
:1002C80080931102809312028093130280E080933E
:1002D80014028093150289E080932A0280932B02EE
:1002E80030E005E01FEF20E080E080931602809365
:1002F800170280931A0280931B0280931C02789441
:100308004CC1AF939F938F938FB78F93809128029F
:10031800803021F080E0809328021FC081E0809324
:10032800280290E887B189238030B9F0AAE08F933A
:100338009F9319D59AEE80E6AA95A030D1F79F91A0
:100348008F9190E887B18923803039F08091170226
:10035800813019F481E0809319028F918FBF8F91BA
:100368009F91AF9118958F939F938FB78F93DF933A
:10037800CF93AF93203009F180911602803009F0B5
:100388001CC0809120029091210201968830ADE333
:100398009A0779F4A1E0A09316028F93CF93DF9385
:1003A800C0E2D2E0882789938883DF91CF918F912B
:1003B80004C08093200290932102AF91CF91DF91E6
:1003C8008F918FBF9F918F9118958F938FB78F9330
:1003D80080911B02813021F080E080931F0218C0B9
:1003E800809122028395833009F010C080911F020A
:1003F800803021F080E080931F0203C08CE080935E
:100408001F0285B988278093220202C080932202A6
:100418008F918FBF8F9118958F939F938FB78F93DD
:10042800AF9380912402909125020196803DA3E02C
:100438009A0709F401C044C0303031F0313031F04E
:10044800323061F0333061F098E012C090911E02B2
:10045800903011F090E00CC094E00AC094E008C01D
:1004680090911E02903011F090E002C098E000C018
:10047800203051F02F3F51F080911D02803011F053
:10048800880F0CC081E00AC080E041F080911D0215
:10049800803011F0869502C080E800C088B980934A
:1004A8001D0295B990931E028F93CF93DF93C4E2F8
:1004B800D2E0882789938883DF91CF918F9104C0F8
:1004C8008093240290932502AF918F918FBF9F91C3
:1004D8008F9118958F938FB78F93809117028030E3
:1004E80009F441C080911902813009F015C080914A
:1004F8001802813089F084F084305CF480E08093C5
:10050800190285E08093180288278093230233E03C
:100518002AC080E0809319028091230283958E314E
:1005280009F01FC080911802803031F0853041F009
:10053800843021F032E00CC031E00AC033E008C05A
:100548008FEF8093180280E08093170230E000C09C
:10055800809118028395809318028827809323023C
:1005680002C0809323028F918FBF8F9118958F932C
:100578008FB78F93333041F0313031F080E0809382
:100588009A0080939B0005C08FEF80939A00809318
:100598009B008F918FBF8F91189580911A0281309F
:1005A80009F4E3C02BD38F939F9390E0903009F424
:1005B80080E853D462D49F918F918F939F9390E05A
:1005C800903009F483E450D458D49F918F918F933D
:1005D8009F9390E0903009F485E546D44ED49F91DE
:1005E8008F918F939F9390E0903009F482E53CD4EB
:1005F80044D49F918F918F939F9390E0903009F40A
:1006080082E532D43AD49F918F918F939F9390E053
:10061800903009F485E428D430D49F918F918F933A
:100628009F9390E0903009F48EE41ED426D49F91D5
:100638008F918F939F9390E0903009F484E514D4C0
:100648001CD49F918F918F939F9390E0903009F4E1
:1006580080E20AD412D49F918F918F939F9390E058
:10066800903009F486E400D408D49F918F918F9339
:100678009F9390E0903009F48CE4F6D3FED39F91D9
:100688008F918F939F9390E0903009F48FE4ECD38F
:10069800F4D39F918F918F939F9390E0903009F4BA
:1006A8008FE4E2D3EAD39F918F918F939F9390E049
:1006B800903009F482E5D8D3E0D39F918F918F933E
:1006C8009F9390E0903009F48AE3CED3D6D39F91DC
:1006D8008F918F939F9390E0903009F488EABDD36F
:1006E800CCD39F918F91802F805D8F939F9391E0C2
:1006F800903009F482E7B8D3C0D39F918F91802EB0
:100708004ED3802D813009F00BC08F938FB78F7730
:100718008FBF8F9181E08093170220E0789483D275
:10072800802E4DD3011709F002C01FEF20E01F3FB4
:1007380009F00CC01FD31F3F09F40FC08F938FB768
:100748008F778FBF8F9166D2789407C08F938FB7BA
:100758008F778FBF8F915ED278948F938FB78F7773
:100768008FBF8F9167C2789418CF8091170281301C
:1007780021F481E08093190256D21F3F21F01F9384
:1007880081E080931C023AD28F939F9390E090303F
:1007980009F480E862D371D39F918F918F939F93CF
:1007A80090E0903009F483E45FD367D39F918F91F1
:1007B8008F939F9390E0903009F485E555D35DD3EE
:1007C8009F918F918F939F9390E0903009F482E5E9
:1007D8004BD353D39F918F918F939F9390E09030F9
:1007E80009F482E541D349D39F918F918F939F93C9
:1007F80090E0903009F485E437D33FD39F918F91EF
:100808008F939F9390E0903009F48EE42DD335D3E5
:100818009F918F918F939F9390E0903009F484E596
:1008280023D32BD39F918F918F939F9390E09030F8
:1008380009F480E219D321D39F918F918F939F93CD
:1008480090E0903009F486E40FD317D39F918F91ED
:100858008F939F9390E0903009F48CE405D30DD3E7
:100868009F918F918F939F9390E0903009F48FE43C
:10087800FBD203D39F918F918F939F9390E09030F9
:1008880009F48FE4F1D2F9D29F918F918F939F93BE
:1008980090E0903009F482E5E7D2EFD29F918F91F2
:1008A8008F939F9390E0903009F48AE3DDD2E5D2EC
:1008B8009F918F918F939F9390E0903009F488EAED
:1008C800CCD2DBD29F918F91802F805D8F939F93A5
:1008D80091E0903009F482E7C7D2CFD29F918F91EF
:1008E800003049F08F938FB78F778FBF8F9110E0CB
:1008F80091D1789448CF20E081E08093170293D17A
:1009080080E08093700081E080931B028F939F9317
:1009180090E0903009F488E3A0D2AFD29F918F91F4
:10092800C6D28F939F9390E0903009F488E395D2D4
:10093800A4D29F918F91B2D28F939F9390E09030E1
:1009480009F488E38AD299D29F918F918F939F93CC
:1009580090E0903009F488E380D28FD29F918F91F4
:100968008F939F9390E0903009F488E076D285D2F7
:100978009F918F918F939F9390E0903009F481E03D
:100988006CD27BD29F918F918F939F9390E0903000
:1009980009F486E062D271D29F918F918F939F93D1
:1009A80090E0903009F48CE058D267D29F918F91F3
:1009B8008F939F9390E0903009F484E84ED25DD2F3
:1009C8009F918F918F939F9390E0903009F485E4E5
:1009D8004BD253D29F918F918F939F9390E09030F9
:1009E80009F48DE641D249D29F918F918F939F93BD
:1009F80090E0903009F485E637D23FD29F918F91ED
:100A08008F939F9390E0903009F482E72DD235D2EE
:100A18009F918F918F939F9390E0903009F487E690
:100A280023D22BD29F918F918F939F9390E09030F8
:100A380009F485E619D221D29F918F918F939F93C4
:100A480090E0903009F48EE60FD217D29F918F91E3
:100A58008F939F9390E0903009F483E605D20DD2EE
:100A68009F918F918F939F9390E0903009F489E73D
:100A7800FBD103D29F918F918F939F9390E09030F9
:100A880009F48CEAEAD1F9D19F918F918F939F93C2
:100A980090E0903009F483E4E7D1EFD19F918F91F2
:100AA8008F939F9390E0903009F481E6DDD1E5D1F2
:100AB8009F918F918F939F9390E0903009F48CE6EB
:100AC800D3D1DBD19F918F918F939F9390E09030FA
:100AD80009F48CE6C9D1D1D19F918F918F939F93BF
:100AE80090E0903009F480E2BFD1C7D19F918F91F7
:100AF8008F939F9390E0903009F480E3B5D1BDD1F6
:100B08009F918F918F939F9390E0903009F480E3A9
:100B1800ABD1B3D19F918F918F939F9390E09030F9
:100B280009F480E3A1D1A9D19F918F91EAC0809166
:100B38001A028130D9F380911C02813009F004C077
:100B48001F9180E080931C0280E080931B0281E06B
:100B5800809370008F939F9390E0903009F488E31E
:100B68007CD18BD19F918F91A2D18F939F9390E04D
:100B7800903009F488E371D180D19F918F918ED103
:100B88008F939F9390E0903009F488E366D175D1F4
:100B98009F918F918F939F9390E0903009F488E311
:100BA8005CD16BD19F918F918F939F9390E0903000
:100BB80009F488E052D161D19F918F918F939F93CF
:100BC80090E0903009F481E048D157D19F918F91FE
:100BD8008F939F9390E0903009F486E03ED14DD1F9
:100BE8009F918F918F939F9390E0903009F48CE0C0
:100BF80034D143D19F918F91D0CCFFCF8F938091E7
:100C08001602813009F004C0020F80E080931602BA
:100C18008F910895101718F021F021E003C02FEFED
:100C280001C020E008958F93809117028130E1F38D
:100C38008F9118957FEE5527543034F089E08093D2
:100C48002A0280932B022BC070930B018FEF90E048
:100C58008AD0809109018F708F30E9F061E04427D4
:100C68004430C9F0982F962309F012C080912A02C7
:100C7800851729F050932A0240932B0211C08091C6
:100C88002B02841761F050932A0240932B0208C06C
:100C98004395660FE5CF5395770F7395CDCF63CD09
:100CA8005330B9F04330B1F0842F880F840F850F8B
:100CB8008395882E74D0902D913009F421C0882E08
:100CC8008DD0B2E0A0E0A80F80E0B81F81E08C933F
:100CD80017C016C0503021F0513031F000C010C09C
:100CE80081E080931A020CC090910002913009F4BF
:100CF80007C080E0882E72D081E08093000200C097
:100D0800CECF7FEE50E070930B01809109018F7078
:100D18008F3031F489E080932A0280932B0212C02D
:100D280068E043E0982F962309F00CC080912A02CE
:100D380090912B028517940729F050932A0240932B
:100D48002B0201C0F4CE80911A02813031F081E08B
:100D580080931A0280931B02F5CF80E080931A02D9
:100D680080931B02EFCF815090408030E1F79030A4
:100D7800D1F708958F939F9341D0902D9F3F09F409
:100D88000AC00F92802C0BD0802D813009F0F4CF4F
:100D98000F90102D01C01FEF9F918F910895AF9371
:100DA800BF938F93882DB2E0A0E0A80F80E0B81F12
:100DB8008C918030082E8F91BF91AF910895AF9399
:100DC800BF938F93882DA0E0B2E0A80F80E0B81FF2
:100DD80080E08C938F91BF91AF910895AF93BF93AB
:100DE8008F93AAE0B2E080911502A80F8827B81F58
:100DF8008C921BD08F91BF91AF910895AF93BF9301
:100E08008F93AF93AAE0B2E080911402A80F8827CD
:100E1800B81F8C91082E8F3F19F08FEF8C9311D04B
:100E2800AF918F91BF91AF9108958F9380911502E3
:100E380083958A300CF401C080E0809315028F916D
:100E480008958F938091140283958A300CF401C021
:100E580080E0809314028F91089581BB1FD0169A69
:100E68001DD016981BD0089581BB179A17D0169AD3
:100E780015D0169813D0179808958F93882780BB9C
:100E880081BB159A0BD0169A09D08FB1169887FD99
:100E9800F9CF15988FEF80BB8F9108958F939F930B
:100EA8009FE08CE90197F1F79F918F910895F6DF04
:0A0EB800F5DFF4DFF3DFF2DF089549
:00000001FF
