:020000020000FC
:0200000064C0DA
:0200040084C1B5
:02000800B4C181
:02005C00C3C11E
:02005000FBC1F2
:02003C002CC2D4
:0200B4004EC23A
:1000C800BAC281E28EBF8FEF8DBF82E080608093DD
:1000D80069008DB3816082608DBB80E084BD82E061
:1000E80085BD81E080936E0080E08093800082E08F
:1000F8008093810081E080936F0080E08093B0005E
:1001080082E08093B10081E0809370008FEF84B922
:1001180087B983E080628093900081E080939100AA
:100128008FEF8DB980E080939A0080939B0080E0E8
:100138008093A00082E08093A10081E08093720008
:1001480080E08093200182E08093210181E0809308
:10015800730080EF80930A018FEF80BB81B98827F5
:1001680081BB82B988E08EB98F939F9390E09030DD
:1001780009F488E3E9D6F8D69F918F910FD78F932A
:100188009F9390E0903009F488E3DED6EDD69F91F6
:100198008F91FBD68F939F9390E0903009F488E37A
:1001A800D3D6E2D69F918F918F939F9390E0903012
:1001B80009F488E3C9D6D8D69F918F918F939F93DE
:1001C80090E0903009F488E0BFD6CED69F918F9109
:1001D8008F939F9390E0903009F481E0B5D6C4D610
:1001E8009F918F918F939F9390E0903009F486E0D0
:1001F800ABD6BAD69F918F918F939F9390E0903012
:1002080009F48CE0A1D6B0D69F918F91222733278D
:10021800552744278F93CF93DF93C4E2D2E08827F2
:1002280089938883DF91CF918F918F93CF93DF93B9
:10023800C6E2D2E0882789938883DF91CF918F9196
:100248008F93CF93DF93C0E2D2E088278993888386
:10025800DF91CF918F91882780931D0280931E0292
:1002680080931602809317028093180280932802C5
:10027800809319028093220280931F02882780931B
:10028800000280930102809302028093030280930C
:1002980004028093050280930602809307028093EC
:1002A8000802809309028FEF80930A0280930B0261
:1002B80080930C0280930D0280930E0280930F02AC
:1002C800809310028093110280931202809313028C
:1002D80080E0809314028093150289E080932A02BB
:1002E80080932B0230E000E01FEF20E080E0809355
:1002F80016028093170280931A0280931B02809340
:100308001C027894AEC1AF939F938F938FB78F934E
:1003180080912802803021F080E0809328021FC05D
:1003280081E08093280290E887B189238030B9F072
:10033800AAE08F939F938FD59AEE80E6AA95A03076
:10034800D1F79F918F9190E887B18923803039F058
:1003580080911702813019F481E0809319028F91FE
:100368008FBF8F919F91AF911895AF939F938F9364
:100378008FB78F9380912902803021F080E080939D
:10038800290226C081E08093290290E887B1892359
:100398008030F1F0AAE08F939F935DD59AEE80E6C6
:1003A800AA95A030D1F79F918F9190E887B18923C2
:1003B800803071F0203009F00BC080911702813035
:1003C80021F081E08093170203C082E08093190234
:1003D8008F918FBF8F919F91AF9118958F939F9316
:1003E8008FB78F93DF93CF93AF93203009F180912C
:1003F8001602803009F01CC08091200290912102E1
:1004080001968830ADE39A0779F4A1E0A09316022B
:100418008F93CF93DF93C0E2D2E0882789938883B4
:10042800DF91CF918F9104C0809320029093210295
:10043800AF91CF91DF918F918FBF9F918F91189539
:100448008F938FB78F9380911B02813021F080E0CA
:1004580080931F0218C0809122028395833009F08F
:1004680010C080911F02803021F080E080931F022D
:1004780003C08CE080931F0285B9882780932202ED
:1004880002C0809322028F918FBF8F9118958F930E
:100498009F938FB78F93AF938091240290912502F9
:1004A8000196803DA3E09A0709F401C044C03030AA
:1004B80031F0313031F0323061F0333061F098E0B2
:1004C80012C090911E02903011F090E00CC094E0A0
:1004D8000AC094E008C090911E02903011F090E09C
:1004E80002C098E000C0203051F02F3F51F08091B9
:1004F8001D02803011F0880F0CC081E00AC080E036
:1005080041F080911D02803011F0869502C080E88C
:1005180000C088B980931D0295B990931E028F93ED
:10052800CF93DF93C4E2D2E0882789938883DF9151
:10053800CF918F9104C08093240290932502AF91AC
:100548008F918FBF9F918F9118958F938FB78F93AE
:100558009F9380911702803009F468C08091190236
:10056800813019F08230B9F03AC080911802813098
:10057800B1F1ACF184305CF480E08093190285E03D
:100588008093180288278093230233E04FC080E0CD
:100598008093190224C0809118028130E9F0E4F0B8
:1005A80084306CF4833024F480E08093190217C0FF
:1005B80083E08093180280E08093190210C0809134
:1005C80023029EE1981B9093230280E080931802F7
:1005D80080E08093190203C080E080931902809123
:1005E800230283958E3109F01FC080911802803054
:1005F80031F0853041F0843021F032E00CC031E038
:100608000AC033E008C08FEF8093180280E080931F
:10061800170230E000C08091180283958093180279
:1006280088278093230202C0809323029F918F9191
:100638008FBF8F9118958F938FB78F93333041F079
:10064800313031F080E080939A0080939B0005C0A0
:100658008FEF80939A0080939B008F918FBF8F912B
:10066800189537D380911A02813009F4E3C03DD33D
:100678008F939F9390E0903009F480E865D474D408
:100688009F918F918F939F9390E0903009F483E42A
:1006980062D46AD49F918F918F939F9390E090300A
:1006A80009F485E558D460D49F918F918F939F93D7
:1006B80090E0903009F482E54ED456D49F918F9102
:1006C8008F939F9390E0903009F482E544D44CD402
:1006D8009F918F918F939F9390E0903009F485E4D8
:1006E8003AD442D49F918F918F939F9390E090300A
:1006F80009F48EE430D438D49F918F918F939F93CF
:1007080090E0903009F484E526D42ED49F918F91FF
:100718008F939F9390E0903009F480E21CD424D406
:100728009F918F918F939F9390E0903009F486E486
:1007380012D41AD49F918F918F939F9390E0903009
:1007480009F48CE408D410D49F918F918F939F93D0
:1007580090E0903009F48FE4FED306D49F918F91F6
:100768008F939F9390E0903009F48FE4F4D3FCD3F7
:100778009F918F918F939F9390E0903009F482E539
:10078800EAD3F2D39F918F918F939F9390E090300B
:1007980009F48AE3E0D3E8D39F918F918F939F93D5
:1007A80090E0903009F488EACFD3DED39F918F91FF
:1007B800802F805D8F939F9391E0903009F482E7BA
:1007C800CAD3D2D39F918F91802E61D3802D81304F
:1007D80009F00BC08F938FB78F778FBF8F9181E010
:1007E8008093170220E0789495D2802E5FD301176A
:1007F80009F002C01FEF20E01F3F09F00CC032D300
:100808001F3F09F40FC08F938FB78F778FBF8F91DA
:1008180078D2789407C08F938FB78F778FBF8F91D7
:1008280070D278948F938FB78F778FBF8F9179C25B
:10083800789417CF80911702813021F481E080935A
:10084800190268D21F3F21F01F9381E080931C0298
:100858004CD28F939F9390E0903009F480E874D342
:1008680083D39F918F918F939F9390E0903009F459
:1008780083E471D379D39F918F918F939F9390E065
:10088800903009F485E567D36FD39F918F918F934B
:100898009F9390E0903009F482E55DD365D39F91F2
:1008A8008F918F939F9390E0903009F482E553D312
:1008B8005BD39F918F918F939F9390E0903009F431
:1008C80085E449D351D39F918F918F939F9390E063
:1008D800903009F48EE43FD347D39F918F918F9343
:1008E8009F9390E0903009F484E535D33DD39F91F0
:1008F8008F918F939F9390E0903009F480E22BD3EF
:1009080033D39F918F918F939F9390E0903009F408
:1009180086E421D329D39F918F918F939F9390E061
:10092800903009F48CE417D31FD39F918F918F9344
:100938009F9390E0903009F48FE40DD315D39F91E5
:100948008F918F939F9390E0903009F48FE403D3B5
:100958000BD39F918F918F939F9390E0903009F4E0
:1009680082E5F9D201D39F918F918F939F9390E065
:10097800903009F48AE3EFD2F7D29F918F918F9349
:100988009F9390E0903009F488EADED2EDD29F91EF
:100998008F91802F805D8F939F9391E0903009F421
:1009A80082E7D9D2E1D29F918F91003049F08F939D
:1009B8008FB78F778FBF8F9110E0A3D1789448CFEE
:1009C80020E081E080931702A5D180E08093700039
:1009D80081E080931B028F939F9390E0903009F4FD
:1009E80088E3B2D2C1D29F918F91D8D28F939F932F
:1009F80090E0903009F488E3A7D2B6D29F918F9106
:100A0800C4D28F939F9390E0903009F488E39CD2EE
:100A1800ABD29F918F918F939F9390E0903009F480
:100A280088E392D2A1D29F918F918F939F9390E068
:100A3800903009F488E088D297D29F918F918F9354
:100A48009F9390E0903009F481E07ED28DD29F91FF
:100A58008F918F939F9390E0903009F486E074D241
:100A680083D29F918F918F939F9390E0903009F458
:100A78008CE06AD279D29F918F918F939F9390E067
:100A8800903009F484E860D26FD29F918F918F9350
:100A98009F9390E0903009F485E45DD265D29F91F0
:100AA8008F918F939F9390E0903009F48DE653D205
:100AB8005BD29F918F918F939F9390E0903009F430
:100AC80085E649D251D29F918F918F939F9390E061
:100AD800903009F482E73FD247D29F918F918F934C
:100AE8009F9390E0903009F487E635D23DD29F91EC
:100AF8008F918F939F9390E0903009F485E62BD2E5
:100B080033D29F918F918F939F9390E0903009F407
:100B18008EE621D229D29F918F918F939F9390E057
:100B2800903009F483E617D21FD29F918F918F934B
:100B38009F9390E0903009F489E70DD215D29F91E8
:100B48008F918F939F9390E0903009F48CEAFCD1B9
:100B58000BD29F918F918F939F9390E0903009F4DF
:100B680083E4F9D101D29F918F918F939F9390E065
:100B7800903009F481E6EFD1F7D19F918F918F934F
:100B88009F9390E0903009F48CE6E5D1EDD19F91E8
:100B98008F918F939F9390E0903009F48CE6DBD18E
:100BA800E3D19F918F918F939F9390E0903009F4B8
:100BB80080E2D1D1D9D19F918F918F939F9390E06B
:100BC800903009F480E3C7D1CFD19F918F918F9353
:100BD8009F9390E0903009F480E3BDD1C5D19F91F7
:100BE8008F918F939F9390E0903009F480E3B3D175
:100BF800BBD19F918F91FDC080911A028130D9F3AA
:100C080080911C02813009F004C01F9180E080931C
:100C18001C0280E080931B0281E0809370008F9318
:100C28009F9390E0903009F488E38ED19DD19F91F5
:100C38008F91B4D18F939F9390E0903009F488E31B
:100C480083D192D19F918F91A0D18F939F9390E060
:100C5800903009F488E378D187D19F918F918F9351
:100C68009F9390E0903009F488E36ED17DD19F91F5
:100C78008F918F939F9390E0903009F488E064D12E
:100C880073D19F918F918F939F9390E0903009F447
:100C980081E05AD169D19F918F918F939F9390E072
:100CA800903009F486E050D15FD19F918F918F9356
:100CB8009F9390E0903009F48CE046D155D19F91F4
:100CC8008F91CFCC8F938FB78F778FBF8F9118B9B4
:100CD800F9CF8F938DB3203019F08070807002C0E7
:100CE800816082608DBB8F9108958F9380911602E9
:100CF800813009F004C0020F80E0809316028F91C2
:100D08000895101718F021F021E003C02FEF01C05B
:100D180020E008958F93809117028130E1F38F913D
:100D280008957FEE5527543034F089E080932A02E5
:100D380080932B022BC070930B018FEF90E08BD028
:100D4800809109018F708F30E9F061E044274430C9
:100D5800C9F0982F962309F012C080912A028517AE
:100D680029F050932A0240932B0211C080912B0244
:100D7800841761F050932A0240932B0208C04395D0
:100D8800660FE5CF5395770F7395CDCF51CD53307F
:100D9800C1F04330B9F0842F880F840F850F8395F5
:100DA8001F3F882E74D0902D913009F421C0882ED1
:100DB8008CD0B2E0A0E0A80F80E0B81F81E08C934F
:100DC80017C016C0503021F0513031F000C010C0AB
:100DD80081E080931A020CC090910002913009F4CE
:100DE80007C080E0882E71D081E08093000200C0A7
:100DF800CDCF7FEE50E070930B01809109018F7089
:100E08008F3031F489E080932A0280932B0212C03C
:100E180068E043E0982F962309F00CC080912A02DD
:100E280090912B028517940729F050932A0240933A
:100E38002B0201C0E1CE80911A02813031F081E0AD
:100E480080931A0280931B02F5CF80E080931A02E8
:100E580080931B02EFCF815090408030E1F79030B3
:100E6800D1F708958F939F9340D0902D9F3F09F419
:100E78000AC00F92802C0BD0802D813009F0F4CF5E
:100E88000F90102D01C01FEF9F918F910895AF9380
:100E9800BF938F93882DB2E0A0E0A80F80E0B81F21
:100EA8008C91082E8F91BF91AF910895AF93BF9306
:100EB8008F93882DA0E0B2E0A80F80E0B81F80E0F3
:100EC8008C938F91BF91AF910895AF93BF938F93F8
:100ED800AAE0B2E080911502A80F8827B81F8C926B
:100EE8001BD08F91BF91AF910895AF93BF938F930C
:100EF800AF93AAE0B2E080911402A80F8827B81F28
:100F08008C91082E8F3F19F08FEF8C9311D0AF91F1
:100F18008F91BF91AF9108958F938091150283951A
:100F28008A300CF401C080E0809315028F910895F7
:100F38008F938091140283958A300CF401C080E06D
:100F4800809314028F91089581BB1FD0169A1DD0EB
:100F580016981BD0089581BB179A17D0169A15D0EA
:100F6800169813D0179808958F93882780BB81BB54
:100F7800159A0BD0169A09D08FB1169887FDF9CF1C
:100F880015988FEF80BB8F9108958F939F939FE063
:100F98008CE90197F1F79F918F910895F6DFF5DFBE
:080FA800F4DFF3DFF2DF08952E
:00000001FF
