:020000020000FC
:0200000064C0DA
:040004000C946D01EA
:02005C0070C171
:02005000A8C145
:02003C00D9C128
:0200B400FBC18E
:1000C8003EC281E28EBF8FEF8DBF82E080936900D0
:1000D8008DB381608DBB80E084BD82E085BD81E009
:1000E80080936E0080E08093800082E0809381009E
:1000F80081E080936F0080E08093B00082E080937D
:10010800B10081E0809370008FEF84B987B983E0F4
:1001180080628093900081E0809391008FEF8DB989
:1001280080E080939A0080939B0080E08093A000F9
:1001380082E08093A10081E08093720080E0809348
:10014800200182E08093210181E08093730080EF99
:1001580080930A018FEF80BB81B9882781BB82B960
:1001680088E08EB98F939F9390E0903009F488E3EC
:10017800BAD5C9D59F918F91E0D58F939F9390E081
:10018800903009F488E3AFD5BED59F918F91CCD537
:100198008F939F9390E0903009F488E3A4D5B3D56A
:1001A8009F918F918F939F9390E0903009F488E30B
:1001B8009AD5A9D59F918F918F939F9390E0903076
:1001C80009F488E090D59FD59F918F918F939F9345
:1001D80090E0903009F481E086D595D59F918F9174
:1001E8008F939F9390E0903009F486E07CD58BD56F
:1001F8009F918F918F939F9390E0903009F48CE0BA
:1002080072D581D59F918F9122273327552744276F
:100218008F93CF93DF93C7E1D2E0882789938883B0
:10022800DF91CF918F918F93CF93DF93C9E1D2E084
:10023800882789938883DF91CF918F918F93CF936C
:10024800DF93C3E1D2E0882789938883DF91CF9138
:100258008F918827809310028093110280930A025D
:1002680080930B0280930C0280931B0280930D02F3
:1002780080931502809312028093000280930102FA
:100288008093020280930302809304028093050204
:1002980080930602809307028093080280930902E4
:1002A80089E080931D0280931E0230E000E01FEF7A
:1002B80020E080E080930A0280930B0280930E0274
:1002C80080930F0230E006E081E080930E0278947C
:1002D8004CC1AF939F938F938FB78F9380911B02DD
:1002E800803021F080E080931B021FC081E0809362
:1002F8001B0290E887B189238030B9F0AAE08F9378
:100308009F93EAD49AEE80E6AA95A030D1F79F9100
:100318008F9190E887B18923803039F080910B0262
:10032800813019F481E080930D028F918FBF8F91F6
:100338009F91AF9118958F939F938FB78F93DF936A
:10034800CF93AF93203009F180910A02803009F0F1
:100358001CC0809113029091140201968830ADE37D
:100368009A0779F4A1E0A0930A028F93CF93DF93C1
:10037800C3E1D2E0882789938883DF91CF918F9159
:1003880004C08093130290931402AF91CF91DF9130
:100398008F918FBF9F918F9118958F938FB78F9360
:1003A80080910F02813021F080E08093120218C002
:1003B800809115028395833009F010C08091120254
:1003C800803021F080E08093120203C08CE080939B
:1003D800120285B988278093150202C080931502FE
:1003E8008F918FBF8F9118958F939F938FB78F930E
:1003F800AF9380911702909118020196803DA3E077
:100408009A0709F401C044C0303031F0313031F07E
:10041800323061F0333061F098E012C090911102EF
:10042800903011F090E00CC094E00AC094E008C04D
:1004380090911102903011F090E002C098E000C055
:10044800203051F02F3F51F080911002803011F090
:10045800880F0CC081E00AC080E041F08091100252
:10046800803011F0869502C080E800C088B980937A
:10047800100295B9909311028F93CF93DF93C7E140
:10048800D2E0882789938883DF91CF918F9104C028
:100498008093170290931802AF918F918FBF9F910D
:1004A8008F9118958F938FB78F9380910B0280301F
:1004B80009F441C080910D02813009F015C0809186
:1004C8000C02813089F084F084305CF480E0809301
:1004D8000D0285E080930C0288278093160233E092
:1004E8002AC080E080930D028091160283958E3198
:1004F80009F01FC080910C02803031F0853041F046
:10050800843021F032E00CC031E00AC033E008C08A
:100518008FEF80930C0280E080930B0230E000C0E4
:1005280080910C02839580930C0288278093160291
:1005380002C0809316028F918FBF8F9118958F9369
:100548008FB78F93333041F0313031F080E08093B2
:100558009A0080939B0005C08FEF80939A00809348
:100568009B008F918FBF8F91189580910E028130DB
:1005780009F4BDC0F6D28F939F9390E0903009F4B0
:1005880080E8B1D3C0D39F918F918F939F9390E0D0
:10059800903009F483E4AED3B6D39F918F918F93B3
:1005A8009F9390E0903009F485E5A4D3ACD39F9154
:1005B8008F918F939F9390E0903009F482E59AD3BE
:1005C800A2D39F918F918F939F9390E0903009F4DD
:1005D80082E590D398D39F918F918F939F9390E0CA
:1005E800903009F485E486D38ED39F918F918F93B1
:1005F8009F9390E0903009F48EE47CD384D39F914C
:100608008F918F939F9390E0903009F484E572D393
:100618007AD39F918F918F939F9390E0903009F4B4
:1006280080E268D370D39F918F918F939F9390E0CE
:10063800903009F486E45ED366D39F918F918F93AF
:100648009F9390E0903009F48CE454D35CD39F914D
:100658008F918F939F9390E0903009F48FE44AD361
:1006680052D39F918F918F939F9390E0903009F48C
:100678008FE440D348D39F918F918F939F9390E0BD
:10068800903009F482E536D33ED39F918F918F93B2
:100698009F9390E0903009F48AE32CD334D39F9150
:1006A8008F918F939F9390E0903009F488EA1BD341
:1006B8002AD39F918F91802F805D8F939F9391E094
:1006C800903009F482E716D31ED39F918F910117BA
:1006D80009F005C020E081E080930B021FEF8F93A3
:1006E8008FB78F778FBF8F9158C278943ECF809104
:1006F8000B02813021F481E080930D0247D231D280
:100708008F939F9390E0903009F480E8ECD2FBD26D
:100718009F918F918F939F9390E0903009F483E499
:10072800E9D2F1D29F918F918F939F9390E090306F
:1007380009F485E5DFD2E7D29F918F918F939F933C
:1007480090E0903009F482E5D5D2DDD29F918F9167
:100758008F939F9390E0903009F482E5CBD2D3D267
:100768009F918F918F939F9390E0903009F485E447
:10077800C1D2C9D29F918F918F939F9390E090306F
:1007880009F48EE4B7D2BFD29F918F918F939F9334
:1007980090E0903009F484E5ADD2B5D29F918F9165
:1007A8008F939F9390E0903009F480E2A3D2ABD26C
:1007B8009F918F918F939F9390E0903009F486E4F6
:1007C80099D2A1D29F918F918F939F9390E090306F
:1007D80009F48CE48FD297D29F918F918F939F9336
:1007E80090E0903009F48FE485D28DD29F918F915B
:1007F8008F939F9390E0903009F48FE47BD283D25B
:100808009F918F918F939F9390E0903009F482E5A8
:1008180071D279D29F918F918F939F9390E090306E
:1008280009F48AE367D26FD29F918F918F939F9338
:1008380090E0903009F488EA56D265D29F918F9162
:10084800802F805D8F939F9391E0903009F482E729
:1008580051D259D29F918F91093049F08F938FB718
:100868008F778FBF8F9119E088D1789448CF20E097
:1008780081E080930B028AD180E08093700081E050
:1008880080930F028F939F9390E0903009F488E350
:100898002AD239D29F918F9150D28F939F9390E013
:1008A800903009F488E31FD22ED29F918F913CD2C9
:1008B8008F939F9390E0903009F488E314D223D269
:1008C8009F918F918F939F9390E0903009F488E3E4
:1008D8000AD219D29F918F918F939F9390E0903075
:1008E80009F488E000D20FD29F918F918F939F9344
:1008F80090E0903009F481E0F6D105D29F918F9174
:100908008F939F9390E0903009F486E0ECD1FBD16F
:100918009F918F918F939F9390E0903009F48CE092
:10092800E2D1F1D19F918F918F939F9390E0903076
:1009380009F484E8D8D1E7D19F918F918F939F9341
:1009480090E0903009F485E4D5D1DDD19F918F9165
:100958008F939F9390E0903009F48DE6CBD1D3D15B
:100968009F918F918F939F9390E0903009F485E643
:10097800C1D1C9D19F918F918F939F9390E090306F
:1009880009F482E7B7D1BFD19F918F918F939F933D
:1009980090E0903009F487E6ADD1B5D19F918F9161
:1009A8008F939F9390E0903009F485E6A3D1ABD163
:1009B8009F918F918F939F9390E0903009F48EE6EA
:1009C80099D1A1D19F918F918F939F9390E090306F
:1009D80009F483E68FD197D19F918F918F939F933D
:1009E80090E0903009F489E785D18DD19F918F915E
:1009F8008F939F9390E0903009F48CEA74D183D15F
:100A08009F918F918F939F9390E0903009F483E4A6
:100A180071D179D19F918F918F939F9390E090306E
:100A280009F481E667D16FD19F918F918F939F933E
:100A380090E0903009F48CE65DD165D19F918F915B
:100A48008F939F9390E0903009F48CE653D15BD15B
:100A58009F918F918F939F9390E0903009F480E25B
:100A680049D151D19F918F918F939F9390E090306E
:100A780009F480E33FD147D19F918F918F939F9342
:100A880090E0903009F480E335D13DD19F918F916A
:100A98008F939F9390E0903009F480E32BD133D16A
:100AA8009F918F91E7C080910E028130D9F380E049
:100AB80080930F0281E0809370008F939F9390E062
:100AC800903009F488E30FD11ED19F918F9135D1D1
:100AD8008F939F9390E0903009F488E304D113D169
:100AE8009F918F9121D18F939F9390E0903009F43B
:100AF80088E3F9D008D19F918F918F939F9390E0CD
:100B0800903009F488E3EFD0FED09F918F918F93B6
:100B18009F9390E0903009F488E0E5D0F4D09F915D
:100B28008F918F939F9390E0903009F481E0DBD010
:100B3800EAD09F918F918F939F9390E0903009F422
:100B480086E0D1D0E0D09F918F918F939F9390E0D2
:100B5800903009F48CE0C7D0D6D09F918F9105CD05
:100B6800FFCF8F9380910A02813009F004C0020FF1
:100B780080E080930A028F910895101718F021F0F1
:100B880021E003C02FEF01C020E008958F938091EA
:100B98000B028130E1F38F9118957FEE5527543081
:100BA80034F089E080931D0280931E022BC070935D
:100BB8000B018FEF90E090D0809109018F708F30FA
:100BC800E9F061E044274430C9F0982F962309F0F2
:100BD80012C080911D02851729F050931D02409381
:100BE8001E0211C080911E02841761F050931D02ED
:100BF80040931E0208C04395660FE5CF5395770FC3
:100C08007395CDCF72CD5330B9F04330B1F0842F06
:100C1800880F840F850F8395182FAFDFB2E0A0E00F
:100C2800A80F80E0B81F8C91803019F481E08C9374
:100C380020C080E08C931DC01CC0503021F0513082
:100C480031F000C016C081E080930E0212C010E09F
:100C5800101708F002C02FEF01C020E080910002B9
:100C6800803021F481E08093000203C080E080930B
:100C78000002C8CF7FEE50E070930B01809109010C
:100C88008F708F3031F489E080931D0280931E02AB
:100C980012C068E043E0982F962309F00CC08091B9
:100CA8001D0290911E028517940729F050931D028A
:100CB80040931E0201C0F7CE80910E02813031F0C0
:100CC80081E080930E0280930F02F5CF80E080933D
:100CD8000E0280930F02EFCF815090408030E1F7F1
:100CE8009030D1F7089581BB1FD0169A1DD0169861
:100CF8001BD0089581BB179A17D0169A15D016984D
:100D080013D0179808958F93882780BB81BB159AB5
:100D18000BD0169A09D08FB1169887FDF9CF159880
:100D28008FEF80BB8F9108958F939F939FE08CE9FD
:100D38000197F1F79F918F910895F6DFF5DFF4DFC2
:060D4800F3DFF2DF089565
:00000001FF
