:020000020000FC
:0200000064C0DA
:0200040084C1B5
:02000800B4C181
:02005C00C3C11E
:02005000FBC1F2
:02003C002CC2D4
:0200B4004EC23A
:1000C800BAC281E28EBF8FEF8DBF82E080608093DD
:1000D80069008DB3816082608DBB80E084BD82E061
:1000E80085BD81E080936E0080E08093800082E08F
:1000F8008093810081E080936F0080E08093B0005E
:1001080082E08093B10081E0809370008FEF84B922
:1001180087B983E080628093900081E080939100AA
:100128008FEF8DB980E080939A0080939B0080E0E8
:100138008093A00082E08093A10081E08093720008
:1001480080E08093200182E08093210181E0809308
:10015800730080EF80930A018FEF80BB81B98827F5
:1001680081BB82B988E08EB98F939F9390E09030DD
:1001780009F488E3DCD6EBD69F918F9102D78F9351
:100188009F9390E0903009F488E3D1D6E0D69F9110
:100198008F91EED68F939F9390E0903009F488E387
:1001A800C6D6D5D69F918F918F939F9390E090302C
:1001B80009F488E3BCD6CBD69F918F918F939F93F8
:1001C80090E0903009F488E0B2D6C1D69F918F9123
:1001D8008F939F9390E0903009F481E0A8D6B7D62A
:1001E8009F918F918F939F9390E0903009F486E0D0
:1001F8009ED6ADD69F918F918F939F9390E090302C
:1002080009F48CE094D6A3D69F918F9122273327A7
:10021800552744278F93CF93DF93C4E2D2E08827F2
:1002280089938883DF91CF918F918F93CF93DF93B9
:10023800C6E2D2E0882789938883DF91CF918F9196
:100248008F93CF93DF93C0E2D2E088278993888386
:10025800DF91CF918F91882780931D0280931E0292
:1002680080931602809317028093180280932802C5
:10027800809319028093220280931F02882780931B
:10028800000280930102809302028093030280930C
:1002980004028093050280930602809307028093EC
:1002A8000802809309028FEF80930A0280930B0261
:1002B80080930C0280930D0280930E0280930F02AC
:1002C800809310028093110280931202809313028C
:1002D80080E0809314028093150289E080932A02BB
:1002E80080932B0230E000E01FEF20E080E0809355
:1002F80016028093170280931A0280931B02809340
:100308001C027894AEC1AF939F938F938FB78F934E
:1003180080912802803021F080E0809328021FC05D
:1003280081E08093280290E887B189238030B9F072
:10033800AAE08F939F9382D59AEE80E6AA95A03083
:10034800D1F79F918F9190E887B18923803039F058
:1003580080911702813019F481E0809319028F91FE
:100368008FBF8F919F91AF911895AF939F938F9364
:100378008FB78F9380912902803021F080E080939D
:10038800290226C081E08093290290E887B1892359
:100398008030F1F0AAE08F939F9350D59AEE80E6D3
:1003A800AA95A030D1F79F918F9190E887B18923C2
:1003B800803071F0203009F00BC080911702813035
:1003C80021F081E08093170203C082E08093190234
:1003D8008F918FBF8F919F91AF9118958F939F9316
:1003E8008FB78F93DF93CF93AF93203009F180912C
:1003F8001602803009F01CC08091200290912102E1
:1004080001968830ADE39A0779F4A1E0A09316022B
:100418008F93CF93DF93C0E2D2E0882789938883B4
:10042800DF91CF918F9104C0809320029093210295
:10043800AF91CF91DF918F918FBF9F918F91189539
:100448008F938FB78F9380911B02813021F080E0CA
:1004580080931F0218C0809122028395833009F08F
:1004680010C080911F02803021F080E080931F022D
:1004780003C08CE080931F0285B9882780932202ED
:1004880002C0809322028F918FBF8F9118958F930E
:100498009F938FB78F93AF938091240290912502F9
:1004A8000196803DA3E09A0709F401C044C03030AA
:1004B80031F0313031F0323061F0333061F098E0B2
:1004C80012C090911E02903011F090E00CC094E0A0
:1004D8000AC094E008C090911E02903011F090E09C
:1004E80002C098E000C0203051F02F3F51F08091B9
:1004F8001D02803011F0880F0CC081E00AC080E036
:1005080041F080911D02803011F0869502C080E88C
:1005180000C088B980931D0295B990931E028F93ED
:10052800CF93DF93C4E2D2E0882789938883DF9151
:10053800CF918F9104C08093240290932502AF91AC
:100548008F918FBF9F918F9118958F938FB78F93AE
:100558009F9380911702803009F468C08091190236
:10056800813019F08230B9F03AC080911802813098
:10057800B1F1ACF184305CF480E08093190285E03D
:100588008093180288278093230233E04FC080E0CD
:100598008093190224C0809118028130E9F0E4F0B8
:1005A80084306CF4833024F480E08093190217C0FF
:1005B80083E08093180280E08093190210C0809134
:1005C80023029EE1981B9093230280E080931802F7
:1005D80080E08093190203C080E080931902809123
:1005E800230283958E3109F01FC080911802803054
:1005F80031F0853041F0843021F032E00CC031E038
:100608000AC033E008C08FEF8093180280E080931F
:10061800170230E000C08091180283958093180279
:1006280088278093230202C0809323029F918F9191
:100638008FBF8F9118958F938FB78F93333041F079
:10064800313031F080E080939A0080939B0005C0A0
:100658008FEF80939A0080939B008F918FBF8F912B
:10066800189580911A02813009F4E3C031D38F9331
:100678009F9390E0903009F480E859D468D49F9112
:100688008F918F939F9390E0903009F483E456D430
:100698005ED49F918F918F939F9390E0903009F44F
:1006A80085E54CD454D49F918F918F939F9390E07C
:1006B800903009F482E542D44AD49F918F918F9368
:1006C8009F9390E0903009F482E538D440D49F910C
:1006D8008F918F939F9390E0903009F485E42ED406
:1006E80036D49F918F918F939F9390E0903009F427
:1006F8008EE424D42CD49F918F918F939F9390E074
:10070800903009F484E51AD422D49F918F918F9365
:100718009F9390E0903009F480E210D418D49F9110
:100728008F918F939F9390E0903009F486E406D4DC
:100738000ED49F918F918F939F9390E0903009F4FE
:100748008CE4FCD304D49F918F918F939F9390E076
:10075800903009F48FE4F2D3FAD39F918F918F935D
:100768009F9390E0903009F48FE4E8D3F0D39F9101
:100778008F918F939F9390E0903009F482E5DED3B8
:10078800E6D39F918F918F939F9390E0903009F4D7
:100798008AE3D4D3DCD39F918F918F939F9390E07A
:1007A800903009F488EAC3D3D2D39F918F91802FD8
:1007B800805D8F939F9391E0903009F482E7BED3D8
:1007C800C6D39F918F91802E55D3802D813009F00B
:1007D8000BC08F938FB78F778FBF8F9181E08093F6
:1007E800170220E0789489D2802E53D3011709F09C
:1007F80002C01FEF20E01F3F09F00CC026D31F3FA7
:1008080009F40FC08F938FB78F778FBF8F916CD2FA
:10081800789407C08F938FB78F778FBF8F9164D2EB
:1008280078948F938FB78F778FBF8F916DC278949D
:1008380018CF80911702813021F481E0809319024A
:100848005CD21F3F21F01F9381E080931C0240D2AD
:100858008F939F9390E0903009F480E868D377D322
:100868009F918F918F939F9390E0903009F483E448
:1008780065D36DD39F918F918F939F9390E0903024
:1008880009F485E55BD363D39F918F918F939F93F1
:1008980090E0903009F482E551D359D39F918F911C
:1008A8008F939F9390E0903009F482E547D34FD31C
:1008B8009F918F918F939F9390E0903009F485E4F6
:1008C8003DD345D39F918F918F939F9390E0903024
:1008D80009F48EE433D33BD39F918F918F939F93E9
:1008E80090E0903009F484E529D331D39F918F911A
:1008F8008F939F9390E0903009F480E21FD327D321
:100908009F918F918F939F9390E0903009F486E4A4
:1009180015D31DD39F918F918F939F9390E0903023
:1009280009F48CE40BD313D39F918F918F939F93EA
:1009380090E0903009F48FE401D309D39F918F910F
:100948008F939F9390E0903009F48FE4F7D2FFD211
:100958009F918F918F939F9390E0903009F482E557
:10096800EDD2F5D29F918F918F939F9390E0903025
:1009780009F48AE3E3D2EBD29F918F918F939F93EF
:1009880090E0903009F488EAD2D2E1D29F918F9119
:10099800802F805D8F939F9391E0903009F482E7D8
:1009A800CDD2D5D29F918F91003049F08F938FB7D8
:1009B8008F778FBF8F9110E097D1789448CF20E040
:1009C80081E08093170299D180E08093700081E0E4
:1009D80080931B028F939F9390E0903009F488E3F3
:1009E800A6D2B5D29F918F91CCD28F939F9390E04E
:1009F800903009F488E39BD2AAD29F918F91B8D204
:100A08008F939F9390E0903009F488E390D29FD21F
:100A18009F918F918F939F9390E0903009F488E392
:100A280086D295D29F918F918F939F9390E090302B
:100A380009F488E07CD28BD29F918F918F939F93FA
:100A480090E0903009F481E072D281D29F918F9129
:100A58008F939F9390E0903009F486E068D277D224
:100A68009F918F918F939F9390E0903009F48CE041
:100A78005ED26DD29F918F918F939F9390E090302B
:100A880009F484E854D263D29F918F918F939F93F6
:100A980090E0903009F485E451D259D29F918F911A
:100AA8008F939F9390E0903009F48DE647D24FD210
:100AB8009F918F918F939F9390E0903009F485E6F2
:100AC8003DD245D29F918F918F939F9390E0903024
:100AD80009F482E733D23BD29F918F918F939F93F2
:100AE80090E0903009F487E629D231D29F918F9116
:100AF8008F939F9390E0903009F485E61FD227D218
:100B08009F918F918F939F9390E0903009F48EE698
:100B180015D21DD29F918F918F939F9390E0903023
:100B280009F483E60BD213D29F918F918F939F93F1
:100B380090E0903009F489E701D209D29F918F9112
:100B48008F939F9390E0903009F48CEAF0D1FFD115
:100B58009F918F918F939F9390E0903009F483E455
:100B6800EDD1F5D19F918F918F939F9390E0903025
:100B780009F481E6E3D1EBD19F918F918F939F93F5
:100B880090E0903009F48CE6D9D1E1D19F918F9112
:100B98008F939F9390E0903009F48CE6CFD1D7D112
:100BA8009F918F918F939F9390E0903009F480E20A
:100BB800C5D1CDD19F918F918F939F9390E0903025
:100BC80009F480E3BBD1C3D19F918F918F939F93F9
:100BD80090E0903009F480E3B1D1B9D19F918F9121
:100BE8008F939F9390E0903009F480E3A7D1AFD121
:100BF8009F918F91F1C080911A028130D9F3809131
:100C08001C02813009F004C01F9180E080931C020F
:100C180080E080931B0281E0809370008F939F9304
:100C280090E0903009F488E382D191D19F918F911F
:100C3800A8D18F939F9390E0903009F488E377D1FF
:100C480086D19F918F9194D18F939F9390E090300C
:100C580009F488E36CD17BD19F918F918F939F93F7
:100C680090E0903009F488E362D171D19F918F911F
:100C78008F939F9390E0903009F488E058D167D122
:100C88009F918F918F939F9390E0903009F481E02A
:100C98004ED15DD19F918F918F939F9390E090302B
:100CA80009F486E044D153D19F918F918F939F93FC
:100CB80090E0903009F48CE03AD149D19F918F911E
:100CC800D0CC8F938FB78F778FBF8F9118B9F9CF0B
:100CD8008F9380911602813009F004C0020F80E0E2
:100CE800809316028F910895101718F021F021E0D3
:100CF80003C02FEF01C020E008958F938091170261
:100D08008130E1F38F9108957FEE5527543034F008
:100D180089E080932A0280932B022BC070930B01E9
:100D28008FEF90E08BD0809109018F708F30E9F0C0
:100D380061E044274430C9F0982F962309F012C087
:100D480080912A02851729F050932A0240932B029A
:100D580011C080912B02841761F050932A024093AE
:100D68002B0208C04395660FE5CF5395770F73950F
:100D7800CDCF5DCD5330C1F04330B9F0842F880F0B
:100D8800840F850F83951F3F882E74D0902D913046
:100D980009F421C0882E8CD0B2E0A0E0A80F80E032
:100DA800B81F81E08C9317C016C0503021F0513025
:100DB80031F000C010C081E080931A020CC09091FD
:100DC8000002913009F407C080E0882E71D081E0DC
:100DD8008093000200C0CDCF7FEE50E070930B01EE
:100DE800809109018F708F3031F489E080932A0255
:100DF80080932B0212C068E043E0982F962309F0F5
:100E08000CC080912A0290912B028517940729F033
:100E180050932A0240932B0201C0EDCE80911A0212
:100E2800813031F081E080931A0280931B02F5CF64
:100E380080E080931A0280931B02EFCF815090408C
:100E48008030E1F79030D1F708958F939F9340D089
:100E5800902D9F3F09F40AC00F92802C0BD0802D53
:100E6800813009F0F4CF0F90102D01C01FEF9F9132
:100E78008F910895AF93BF938F93882DB2E0A0E030
:100E8800A80F80E0B81F8C91082E8F91BF91AF9169
:100E98000895AF93BF938F93882DA0E0B2E0A80F79
:100EA80080E0B81F80E08C938F91BF91AF91089537
:100EB800AF93BF938F93AAE0B2E080911502A80F79
:100EC8008827B81F8C921BD08F91BF91AF9108953E
:100ED800AF93BF938F93AF93AAE0B2E080911402CF
:100EE800A80F8827B81F8C91082E8F3F19F08FEF15
:100EF8008C9311D0AF918F91BF91AF9108958F933B
:100F08008091150283958A300CF401C080E08093AB
:100F180015028F9108958F938091140283958A30DA
:100F28000CF401C080E0809314028F91089581BB76
:100F38001FD0169A1DD016981BD0089581BB179AFA
:100F480017D0169A15D0169813D0179808958F931E
:100F5800882780BB81BB159A0BD0169A09D08FB110
:100F6800169887FDF9CF15988FEF80BB8F9108955C
:100F78008F939F939FE08CE90197F1F79F918F9151
:0E0F88000895F6DFF5DFF4DFF3DFF2DF089502
:00000001FF
