:020000020000FC
:0200000064C0DA
:0200040084C1B5
:02000800B4C181
:02005C00C3C11E
:02005000FBC1F2
:02003C002CC2D4
:0200B4004EC23A
:1000C800BBC281E28EBF8FEF8DBF82E088608093D4
:1000D80069008DB3816082608DBB80E084BD82E061
:1000E80085BD81E080936E0080E08093800082E08F
:1000F8008093810081E080936F0080E08093B0005E
:1001080082E08093B10081E0809370008FEF84B922
:1001180087B983E080628093900081E080939100AA
:100128008FEF8DB980E080939A0080939B0080E0E8
:100138008093A00082E08093A10081E08093720008
:1001480080E08093200182E08093210181E0809308
:10015800730080EF80930A018FEF80BB81B98827F5
:1001680081BB82B988E08EB98F939F9390E09030DD
:1001780009F488E3F3D602D79F918F9119D78F930B
:100188009F9390E0903009F488E3E8D6F7D69F91E2
:100198008F9105D78F939F9390E0903009F488E36F
:1001A800DDD6ECD69F918F918F939F9390E09030FE
:1001B80009F488E3D3D6E2D69F918F918F939F93CA
:1001C80090E0903009F488E0C9D6D8D69F918F91F5
:1001D8008F939F9390E0903009F481E0BFD6CED6FC
:1001E8009F918F918F939F9390E0903009F486E0D0
:1001F800B5D6C4D69F918F918F939F9390E09030FE
:1002080009F48CE0ABD6BAD69F918F912227332779
:10021800552744278F93CF93DF93C4E2D2E08827F2
:1002280089938883DF91CF918F918F93CF93DF93B9
:10023800C6E2D2E0882789938883DF91CF918F9196
:100248008F93CF93DF93C0E2D2E088278993888386
:10025800DF91CF918F91882780931D0280931E0292
:1002680080931602809317028093180280932802C5
:10027800809319028093220280931F02882780931B
:10028800000280930102809302028093030280930C
:1002980004028093050280930602809307028093EC
:1002A8000802809309028FEF80930A0280930B0261
:1002B80080930C0280930D0280930E0280930F02AC
:1002C800809310028093110280931202809313028C
:1002D80080E0809314028093150289E080932A02BB
:1002E80080932B0230E000E01FEF20E080E0809355
:1002F80016028093170280931A0280931B02809340
:100308001C027894AFC1AF939F938F938FB78F934D
:1003180080912802803021F080E0809328021FC05D
:1003280081E08093280290E887B189238030B9F072
:10033800AAE08F939F9399D59AEE80E6AA95A0306C
:10034800D1F79F918F9190E887B18923803039F058
:1003580080911702813019F481E0809319028F91FE
:100368008FBF8F919F91AF911895AF939F938F9364
:100378008FB78F9380912902803021F080E080939D
:10038800290226C081E08093290290E887B1892359
:100398008030F1F0AAE08F939F9367D59AEE80E6BC
:1003A800AA95A030D1F79F918F9190E887B18923C2
:1003B800803071F0203009F00BC080911702813035
:1003C80021F081E08093170203C082E08093190234
:1003D8008F918FBF8F919F91AF9118958F939F9316
:1003E8008FB78F93DF93CF93AF93203009F180912C
:1003F8001602803009F01CC08091200290912102E1
:1004080001968830ADE39A0779F4A1E0A09316022B
:100418008F93CF93DF93C0E2D2E0882789938883B4
:10042800DF91CF918F9104C0809320029093210295
:10043800AF91CF91DF918F918FBF9F918F91189539
:100448008F938FB78F9380911B02813021F080E0CA
:1004580080931F0218C0809122028395833009F08F
:1004680010C080911F02803021F080E080931F022D
:1004780003C08CE080931F0285B9882780932202ED
:1004880002C0809322028F918FBF8F9118958F930E
:100498009F938FB78F93AF938091240290912502F9
:1004A8000196803DA3E09A0709F401C044C03030AA
:1004B80031F0313031F0323061F0333061F098E0B2
:1004C80012C090911E02903011F090E00CC094E0A0
:1004D8000AC094E008C090911E02903011F090E09C
:1004E80002C098E000C0203051F02F3F51F08091B9
:1004F8001D02803011F0880F0CC081E00AC080E036
:1005080041F080911D02803011F0869502C080E88C
:1005180000C088B980931D0295B990931E028F93ED
:10052800CF93DF93C4E2D2E0882789938883DF9151
:10053800CF918F9104C08093240290932502AF91AC
:100548008F918FBF9F918F9118958F938FB78F93AE
:100558009F9380911702803009F469C0BBD38091C2
:100568001902813019F08230B9F03AC0809118022E
:100578008130B1F1ACF184305CF480E080931902F1
:1005880085E08093180288278093230233E04FC0C8
:1005980080E08093190224C0809118028130E9F02C
:1005A800E4F084306CF4833024F480E08093190202
:1005B80017C083E08093180280E08093190210C06E
:1005C800809123029EE1981B9093230280E0809300
:1005D800180280E08093190203C080E0809319021A
:1005E8008091230283958E3109F01FC080911802F3
:1005F800803031F0853041F0843021F032E00CC099
:1006080031E00AC033E008C08FEF8093180280E021
:100618008093170230E000C0809118028395809380
:10062800180288278093230202C0809323029F9197
:100638008F918FBF8F9118958F938FB78F9333308A
:1006480041F0313031F080E080939A0080939B0034
:1006580005C08FEF80939A0080939B008F918FBF86
:100668008F91189537D380911A02813009F4E3C02D
:1006780046D38F939F9390E0903009F480E86ED42E
:100688007DD49F918F918F939F9390E0903009F440
:1006980083E46BD473D49F918F918F939F9390E051
:1006A800903009F485E561D469D49F918F918F9337
:1006B8009F9390E0903009F482E557D45FD49F91DE
:1006C8008F918F939F9390E0903009F482E54DD4F9
:1006D80055D49F918F918F939F9390E0903009F418
:1006E80085E443D44BD49F918F918F939F9390E04F
:1006F800903009F48EE439D441D49F918F918F932F
:100708009F9390E0903009F484E52FD437D49F91DB
:100718008F918F939F9390E0903009F480E225D4D5
:100728002DD49F918F918F939F9390E0903009F4EF
:1007380086E41BD423D49F918F918F939F9390E04D
:10074800903009F48CE411D419D49F918F918F9330
:100758009F9390E0903009F48FE407D40FD49F91D1
:100768008F918F939F9390E0903009F48FE4FDD39D
:1007780005D49F918F918F939F9390E0903009F4C7
:1007880082E5F3D3FBD39F918F918F939F9390E052
:10079800903009F48AE3E9D3F1D39F918F918F9335
:1007A8009F9390E0903009F488EAD8D3E7D39F91DB
:1007B8008F91802F805D8F939F9391E0903009F403
:1007C80082E7D3D3DBD39F918F91802E6AD3802D7C
:1007D800813009F00BC08F938FB78F778FBF8F91C0
:1007E80081E08093170220E078949ED2802E68D30F
:1007F800011709F002C01FEF20E01F3F09F00CC0ED
:100808003BD31F3F09F40FC08F938FB78F778FBFEC
:100818008F9181D2789407C08F938FB78F778FBFCE
:100828008F9179D278948F938FB78F778FBF8F916D
:1008380082C2789417CF80911702813021F481E029
:100848008093190271D21F3F21F01F9381E080939A
:100858001C0255D28F939F9390E0903009F480E862
:100868007DD38CD39F918F918F939F9390E09030FD
:1008780009F483E47AD382D39F918F918F939F93C6
:1008880090E0903009F485E570D378D39F918F91EB
:100898008F939F9390E0903009F482E566D36ED3EE
:1008A8009F918F918F939F9390E0903009F482E508
:1008B8005CD364D39F918F918F939F9390E09030F6
:1008C80009F485E452D35AD39F918F918F939F93C4
:1008D80090E0903009F48EE448D350D39F918F91E3
:1008E8008F939F9390E0903009F484E53ED346D3EC
:1008F8009F918F918F939F9390E0903009F480E2BD
:1009080034D33CD39F918F918F939F9390E09030F5
:1009180009F486E42AD332D39F918F918F939F93C2
:1009280090E0903009F48CE420D328D39F918F91E4
:100938008F939F9390E0903009F48FE416D31ED3E1
:100948009F918F918F939F9390E0903009F48FE45B
:100958000CD314D39F918F918F939F9390E09030F5
:1009680009F482E502D30AD39F918F918F939F93C5
:1009780090E0903009F48AE3F8D200D39F918F91E8
:100988008F939F9390E0903009F488EAE7D2F6D2EB
:100998009F918F91802F805D8F939F9391E09030EE
:1009A80009F482E7E2D2EAD29F918F91003049F0B0
:1009B8008F938FB78F778FBF8F9110E0ACD17894DA
:1009C80048CF20E081E080931702AED180E0809389
:1009D800700081E080931B028F939F9390E090308A
:1009E80009F488E3BBD2CAD29F918F91E1D28F9349
:1009F8009F9390E0903009F488E3B0D2BFD29F91E2
:100A08008F91CDD28F939F9390E0903009F488E333
:100A1800A5D2B4D29F918F918F939F9390E09030FD
:100A280009F488E39BD2AAD29F918F918F939F93C9
:100A380090E0903009F488E091D2A0D29F918F91F4
:100A48008F939F9390E0903009F481E087D296D2FB
:100A58009F918F918F939F9390E0903009F486E057
:100A68007DD28CD29F918F918F939F9390E09030FD
:100A780009F48CE073D282D29F918F918F939F93C8
:100A880090E0903009F484E869D278D29F918F91F0
:100A98008F939F9390E0903009F485E466D26ED2EC
:100AA8009F918F918F939F9390E0903009F48DE6FA
:100AB8005CD264D29F918F918F939F9390E09030F6
:100AC80009F485E652D25AD29F918F918F939F93C2
:100AD80090E0903009F482E748D250D29F918F91EC
:100AE8008F939F9390E0903009F487E63ED246D2E8
:100AF8009F918F918F939F9390E0903009F485E6B2
:100B080034D23CD29F918F918F939F9390E09030F5
:100B180009F48EE62AD232D29F918F918F939F93B8
:100B280090E0903009F483E620D228D29F918F91EB
:100B38008F939F9390E0903009F489E716D21ED2E4
:100B48009F918F918F939F9390E0903009F48CEA56
:100B580005D214D29F918F918F939F9390E09030FC
:100B680009F483E402D20AD29F918F918F939F93C5
:100B780090E0903009F481E6F8D100D29F918F91EE
:100B88008F939F9390E0903009F48CE6EED1F6D1E4
:100B98009F918F918F939F9390E0903009F48CE60A
:100BA800E4D1ECD19F918F918F939F9390E09030F7
:100BB80009F480E2DAD1E2D19F918F918F939F93CC
:100BC80090E0903009F480E3D0D1D8D19F918F91F3
:100BD8008F939F9390E0903009F480E3C6D1CED1F3
:100BE8009F918F918F939F9390E0903009F480E3C9
:100BF800BCD1C4D19F918F9106C180911A028130D6
:100C0800D9F380911C02813009F004C01F9180E063
:100C180080931C0280E080931B0281E08093700027
:100C28008F939F9390E0903009F488E397D1A6D1F1
:100C38009F918F91BDD18F939F9390E0903009F44D
:100C480088E38CD19BD19F918F91A9D18F939F934A
:100C580090E0903009F488E381D190D19F918F91F1
:100C68008F939F9390E0903009F488E377D186D1F1
:100C78009F918F918F939F9390E0903009F488E033
:100C88006DD17CD19F918F918F939F9390E09030FD
:100C980009F481E063D172D19F918F918F939F93D3
:100CA80090E0903009F486E059D168D19F918F91F6
:100CB8008F939F9390E0903009F48CE04FD15ED1F0
:100CC8009F918F91CFCC8F938FB78F778FBF8F9155
:100CD80018B9F9CF8F938DB3203019F080708070D8
:100CE80002C0816082608DBB80916900323011F052
:100CF800886001C0837F809369008F9108958F93E6
:100D080080911602813009F004C0020F80E08093C0
:100D180016028F910895101718F021F021E003C0F2
:100D28002FEF01C020E008958F9380911702813042
:100D3800E1F38F9108957FEE5527543034F089E020
:100D480080932A0280932B022BC070930B018FEFA4
:100D580090E08BD0809109018F708F30E9F061E0CD
:100D680044274430C9F0982F962309F012C0809187
:100D78002A02851729F050932A0240932B0211C0AA
:100D880080912B02841761F050932A0240932B0222
:100D980008C04395660FE5CF5395770F7395CDCF70
:100DA80048CD5330C1F04330B9F0842F880F840FF9
:100DB800850F83951F3F882E74D0902D913009F4AC
:100DC80021C0882E8CD0B2E0A0E0A80F80E0B81F28
:100DD80081E08C9317C016C0503021F0513031F0AB
:100DE80000C010C081E080931A020CC090910002EC
:100DF800913009F407C080E0882E71D081E080939B
:100E0800000200C0CDCF7FEE50E070930B018091BF
:100E180009018F708F3031F489E080932A02809322
:100E28002B0212C068E043E0982F962309F00CC00B
:100E380080912A0290912B028517940729F05093EC
:100E48002A0240932B0201C0D8CE80911A02813029
:100E580031F081E080931A0280931B02F5CF80E085
:100E680080931A0280931B02EFCF8150904080300C
:100E7800E1F79030D1F708958F939F9340D0902D4C
:100E88009F3F09F40AC00F92802C0BD0802D81302F
:100E980009F0F4CF0F90102D01C01FEF9F918F9193
:100EA8000895AF93BF938F93882DB2E0A0E0A80F69
:100EB80080E0B81F8C91082E8F91BF91AF91089553
:100EC800AF93BF938F93882DA0E0B2E0A80F80E086
:100ED800B81F80E08C938F91BF91AF910895AF9325
:100EE800BF938F93AAE0B2E080911502A80F8827DC
:100EF800B81F8C921BD08F91BF91AF910895AF937B
:100F0800BF938F93AF93AAE0B2E080911402A80F29
:100F18008827B81F8C91082E8F3F19F08FEF8C937C
:100F280011D0AF918F91BF91AF9108958F93809118
:100F3800150283958A300CF401C080E08093150275
:100F48008F9108958F938091140283958A300CF4C1
:100F580001C080E0809314028F91089581BB1FD057
:100F6800169A1DD016981BD0089581BB179A17D0D2
:100F7800169A15D0169813D0179808958F93882726
:100F880080BB81BB159A0BD0169A09D08FB11698E1
:100F980087FDF9CF15988FEF80BB8F9108958F93B8
:100FA8009F939FE08CE90197F1F79F918F910895A6
:0C0FB800F6DFF5DFF4DFF3DFF2DF089571
:00000001FF
