:020000020000FC
:0200000064C0DA
:0200040079C1C0
:02000800A9C18C
:02005C00B8C129
:02005000F0C1FD
:02003C0021C2DF
:0200B40043C245
:1000C800B2C281E28EBF8FEF8DBF82E088608093DD
:1000D80069008DB3816082608DBB80E084BD82E061
:1000E80085BD81E080936E0080E08093800082E08F
:1000F8008093810081E080936F0080E08093B0005E
:1001080082E08093B10081E0809370008FEF84B922
:1001180087B983E080628093900081E080939100AA
:100128008FEF8DB980E080939A0080939B0080E0E8
:100138008093A00082E08093A10081E08093720008
:1001480080E08093200182E08093210181E0809308
:10015800730080EF80930A018FEF80BB81B98827F5
:1001680081BB82B988E08EB98F939F9390E09030DD
:1001780009F488E30AD719D79F918F9130D78F93C5
:100188009F9390E0903009F488E3FFD60ED79F91B3
:100198008F911CD78F939F9390E0903009F488E358
:1001A800F4D603D79F918F918F939F9390E09030CF
:1001B80009F488E3EAD6F9D69F918F918F939F939C
:1001C80090E0903009F488E0E0D6EFD69F918F91C7
:1001D8008F939F9390E0903009F481E0D6D6E5D6CE
:1001E8009F918F918F939F9390E0903009F486E0D0
:1001F800CCD6DBD69F918F918F939F9390E09030D0
:1002080009F48CE0C2D6D1D69F918F91222733274B
:10021800552744278F93CF93DF93C3E2D2E08827F3
:1002280089938883DF91CF918F918F93CF93DF93B9
:10023800C0E2D2E0882789938883DF91CF918F919C
:10024800882780931D0280931E0280931602809354
:1002580017028093180280932602809319028093D4
:10026800220280931F028827809300028093010254
:100278008093020280930302809304028093050214
:1002880080930602809307028093080280930902F4
:100298008FEF80930A0280930B0280930C02809365
:1002A8000D0280930E0280930F02809310028093B8
:1002B8001102809312028093130280E0809314024B
:1002C8008093150289E0809328028093290230E008
:1002D80000E01FEF20E080E0809316028093170271
:1002E80080931A0280931B0280931C027894B1C1F8
:1002F800AF939F938F938FB78F938091260280300F
:1003080021F080E0809326021FC081E080932602BE
:1003180090E887B189238030B9F0AAE08F939F9342
:10032800BAD59AEE80E6AA95A030D1F79F918F9121
:1003380090E887B18923803039F0809117028130A5
:1003480019F481E0809319028F918FBF8F919F914B
:10035800AF911895AF939F938F938FB78F93809199
:100368002702803021F080E08093270226C081E0B8
:100378008093270290E887B189238030F1F0AAE0C2
:100388008F939F9388D59AEE80E6AA95A030D1F7EF
:100398009F918F9190E887B18923803071F0203048
:1003A80009F00BC080911702813021F081E0809321
:1003B800170203C082E0809319028F918FBF8F913B
:1003C8009F91AF9118958F939F938FB78F93DF93DA
:1003D800CF93AF93203009F180911602803009F055
:1003E8001CC0809120029091210201968830ADE3D3
:1003F8009A0779F4A1E0A09316028F93CF93DF9325
:10040800C0E2D2E0882789938883DF91CF918F91CA
:1004180004C08093200290932102AF91CF91DF9185
:100428008F918FBF9F918F9118958F938FB78F93CF
:1004380080911B02813021F080E080931F0218C058
:10044800809122028395833009F010C080911F02A9
:10045800803021F080E080931F0203C08CE08093FD
:100468001F0285B988278093220202C08093220246
:100478008F918FBF8F9118958F939F938FB78F937D
:10048800AF9380912302909124020196803DA3E0CE
:100498009A0709F401C044C0303031F0313031F0EE
:1004A800323061F0333061F098E012C090911E0252
:1004B800903011F090E00CC094E00AC094E008C0BD
:1004C80090911E02903011F090E002C098E000C0B8
:1004D800203051F02F3F51F080911D02803011F0F3
:1004E800880F0CC081E00AC080E041F080911D02B5
:1004F800803011F0869502C080E800C088B98093EA
:100508001D0295B990931E028F93CF93DF93C3E298
:10051800D2E0882789938883DF91CF918F9104C097
:100528008093230290932402AF918F918FBF9F9164
:100538008F9118958F938FB78F939F938091170200
:10054800803009F46BC0C8D380911902813019F04A
:100558008230B9F03CC0809118028130C1F1BCF101
:1005680084305CF480E08093190285E0809318025F
:1005780088278093250233E051C080E080931902D8
:1005880026C0809118028130F9F0F4F0843011F01F
:100598000CF00DC0833024F480E08093190217C05A
:1005A80083E08093180280E08093190210C0809144
:1005B80025029EE1981B9093250280E08093180203
:1005C80080E08093190203C080E080931902809133
:1005D800250283958E3109F01FC080911802803062
:1005E80031F0853041F0843021F032E00CC031E048
:1005F8000AC033E008C08FEF8093180280E0809330
:10060800170230E000C08091180283958093180289
:1006180088278093250202C0809325029F918F919D
:100628008FBF8F9118958F938FB78F93333041F089
:10063800313031F080E080939A0080939B0005C0B0
:100648008FEF80939A0080939B008F918FBF8F913B
:10065800189542D380911A02813009F4E3C051D32E
:100668008F939F9390E0903009F480E88ED49DD4C6
:100678009F918F918F939F9390E0903009F483E43A
:100688008BD493D49F918F918F939F9390E09030C8
:1006980009F485E581D489D49F918F918F939F9395
:1006A80090E0903009F482E577D47FD49F918F91C0
:1006B8008F939F9390E0903009F482E56DD475D4C0
:1006C8009F918F918F939F9390E0903009F485E4E8
:1006D80063D46BD49F918F918F939F9390E09030C8
:1006E80009F48EE459D461D49F918F918F939F938D
:1006F80090E0903009F484E54FD457D49F918F91BE
:100708008F939F9390E0903009F480E245D44DD4C4
:100718009F918F918F939F9390E0903009F486E496
:100728003BD443D49F918F918F939F9390E09030C7
:1007380009F48CE431D439D49F918F918F939F938E
:1007480090E0903009F48FE427D42FD49F918F91B3
:100758008F939F9390E0903009F48FE41DD425D4B3
:100768009F918F918F939F9390E0903009F482E549
:1007780013D41BD49F918F918F939F9390E09030C7
:1007880009F48AE309D411D49F918F918F939F9391
:1007980090E0903009F488EAF8D307D49F918F91BC
:1007A800802F805D8F939F9391E0903009F482E7CA
:1007B800F3D3FBD39F918F91802E8AD3802D8130E4
:1007C80009F00BC08F938FB78F778FBF8F9181E020
:1007D8008093170220E07894A9D2802E88D301173D
:1007E80009F002C01FEF20E01F3F09F00CC05AD3E8
:1007F8001F3F09F40FC08F938FB78F778FBF8F91EB
:100808008CD2789407C08F938FB78F778FBF8F91D3
:1008180084D278948F938FB78F778FBF8F9194D22C
:10082800789417CF80911702813021F481E080936A
:1008380019027CD21F3F21F01F9381E080931C0294
:1008480060D28F939F9390E0903009F480E89DD315
:10085800ACD39F918F918F939F9390E0903009F440
:1008680083E49AD3A2D39F918F918F939F9390E023
:10087800903009F485E590D398D39F918F918F9309
:100888009F9390E0903009F482E586D38ED39F91B0
:100898008F918F939F9390E0903009F482E57CD3F9
:1008A80084D39F918F918F939F9390E0903009F418
:1008B80085E472D37AD39F918F918F939F9390E021
:1008C800903009F48EE468D370D39F918F918F9301
:1008D8009F9390E0903009F484E55ED366D39F91AE
:1008E8008F918F939F9390E0903009F480E254D3D6
:1008F8005CD39F918F918F939F9390E0903009F4F0
:1009080086E44AD352D39F918F918F939F9390E01F
:10091800903009F48CE440D348D39F918F918F9302
:100928009F9390E0903009F48FE436D33ED39F91A3
:100938008F918F939F9390E0903009F48FE42CD39C
:1009480034D39F918F918F939F9390E0903009F4C7
:1009580082E522D32AD39F918F918F939F9390E022
:10096800903009F48AE318D320D39F918F918F9305
:100978009F9390E0903009F488EA07D316D39F91AB
:100988008F91802F805D8F939F9391E0903009F431
:1009980082E702D30AD39F918F91003051F08F9351
:1009A8008FB78F778FBF8F9110E0B7D1789494D19C
:1009B80047CF20E081E080931702B8D180E0809390
:1009C800700081E080931B028F939F9390E090309A
:1009D80009F488E3DAD2E9D29F918F9100D38F93FB
:1009E8009F9390E0903009F488E3CFD2DED29F91B4
:1009F8008F91ECD28F939F9390E0903009F488E325
:100A0800C4D2D3D29F918F918F939F9390E09030CF
:100A180009F488E3BAD2C9D29F918F918F939F939B
:100A280090E0903009F488E0B0D2BFD29F918F91C6
:100A38008F939F9390E0903009F481E0A6D2B5D2CD
:100A48009F918F918F939F9390E0903009F486E067
:100A58009CD2ABD29F918F918F939F9390E09030CF
:100A680009F48CE092D2A1D29F918F918F939F939A
:100A780090E0903009F484E888D297D29F918F91C2
:100A88008F939F9390E0903009F485E485D28DD2BE
:100A98009F918F918F939F9390E0903009F48DE60A
:100AA8007BD283D29F918F918F939F9390E09030C8
:100AB80009F485E671D279D29F918F918F939F9394
:100AC80090E0903009F482E767D26FD29F918F91BE
:100AD8008F939F9390E0903009F487E65DD265D2BA
:100AE8009F918F918F939F9390E0903009F485E6C2
:100AF80053D25BD29F918F918F939F9390E09030C8
:100B080009F48EE649D251D29F918F918F939F938A
:100B180090E0903009F483E63FD247D29F918F91BD
:100B28008F939F9390E0903009F489E735D23DD2B6
:100B38009F918F918F939F9390E0903009F48CEA66
:100B480024D233D29F918F918F939F9390E09030CE
:100B580009F483E421D229D29F918F918F939F9397
:100B680090E0903009F481E617D21FD29F918F91BF
:100B78008F939F9390E0903009F48CE60DD215D2B4
:100B88009F918F918F939F9390E0903009F48CE61A
:100B980003D20BD29F918F918F939F9390E09030C7
:100BA80009F480E2F9D101D29F918F918F939F939D
:100BB80090E0903009F480E3EFD1F7D19F918F91C5
:100BC8008F939F9390E0903009F480E3E5D1EDD1C5
:100BD8009F918F918F939F9390E0903009F480E3D9
:100BE800DBD1E3D19F918F9124C180911A0281308A
:100BF800D9F380911C02813009F004C01F9180E074
:100C080080931C0280E080931B0281E08093700037
:100C18008F939F9390E0903009F488E3B6D1C5D1C3
:100C28009F918F91DCD18F939F9390E0903009F43E
:100C380088E3ABD1BAD19F918F91C8D18F939F93FD
:100C480090E0903009F488E3A0D1AFD19F918F91C3
:100C58008F939F9390E0903009F488E396D1A5D1C3
:100C68009F918F918F939F9390E0903009F488E043
:100C78008CD19BD19F918F918F939F9390E09030CF
:100C880009F481E082D191D19F918F918F939F93A5
:100C980090E0903009F486E078D187D19F918F91C8
:100CA8008F939F9390E0903009F48CE06ED17DD1C2
:100CB8009F918F91CECC8F938FB78F778FBF8F9166
:100CC80018B91F3F812E13D18F938FB78F778FBF9E
:100CD8008F913AD07894EFCF8F938DB3203019F05D
:100CE8008070807002C0816082608DBB80916900D5
:100CF800323011F0886001C0837F809369008F9142
:100D080008958F9380911602813009F004C0020F74
:100D180080E0809316028F91089510171CF021F03F
:100D280021E003C02FEF01C020E008958F938F9337
:100D38008FB78F778FBF8F9107D0789480911702E4
:100D48008130A9F38F9108957F935F936F934F93A9
:100D58008F939F937FEE5527543034F089E080932A
:100D68002802809329022BC070930B018FEF90E02B
:100D780092D0809109018F708F30E9F061E04427AB
:100D88004430C9F0982F962309F012C080912802A8
:100D9800851729F0509328024093290217C08091A3
:100DA8002902841761F050932802409329020EC04B
:100DB8004395660FE5CF5395770F7395CDCF9F91E8
:100DC8008F914F916F915F917F9108955330C1F04A
:100DD8004330B9F0842F880F840F850F83951F3F08
:100DE800882E76D0902D913009F422C0882E8ED08E
:100DF800B2E0A0E0A80F80E0B81F81E08C9318C093
:100E080017C0503029F0513039F000C04BD010C015
:100E180081E080931A020CC090910002913009F48D
:100E280007C080E0882E72D081E08093000200C065
:100E3800C6CF7FEE50E070930B01809109018F704F
:100E48008F3031F489E0809328028093290212C000
:100E580068E043E0982F962309F00CC0809128029F
:100E6800909129028517940729F0509328024093FE
:100E7800290201C0BACE80911A02813031F081E096
:100E880080931A0280931B02F5CF80E080931A02A8
:100E980080931B02EFCF815090408030E1F7903073
:100EA800D1F708958F939F9341D0902D9F3F09F4D8
:100EB8000BC00F92802C0CD0802D813011F00F9038
:100EC800F3CF0F90102D01C01FEF9F918F910895C0
:100ED800AF93BF938F93882DB2E0A0E0A80F80E076
:100EE800B81F8C91082E8F91BF91AF910895AF9341
:100EF800BF938F93882DA0E0B2E0A80F80E0B81FC1
:100F080080E08C938F91BF91AF910895AF93BF9379
:100F18008F93AAE0B2E080911502A80F8827B81F26
:100F28008C921BD08F91BF91AF910895AF93BF93CF
:100F38008F93AF93AAE0B2E080911402A80F88279C
:100F4800B81F8C91082E8F3F19F08FEF8C9311D01A
:100F5800AF918F91BF91AF9108958F9380911502B2
:100F680083958A300CF401C080E0809315028F913C
:100F780008958F938091140283958A300CF401C0F0
:100F880080E0809314028F91089581BB1FD0169A38
:100F98001DD016981BD0089581BB179A17D0169AA2
:100FA80015D0169813D0179808958F93882780BB6B
:100FB80081BB159A0BD0169A09D08FB1169887FD68
:100FC800F9CF15988FEF80BB8F9108958F939F93DA
:100FD8009FE08CE90197F1F79F918F910895F6DFD3
:0A0FE800F5DFF4DFF3DFF2DF089518
:00000001FF
