:020000020000FC
:0200000064C0DA
:0200040079C1C0
:02000800A9C18C
:02005C00B8C129
:02005000F0C1FD
:02003C0021C2DF
:0200B40043C245
:1000C800B3C281E28EBF8FEF8DBF82E088608093DC
:1000D80069008DB3816082608DBB80E084BD82E061
:1000E80085BD81E080936E0080E08093800082E08F
:1000F8008093810081E080936F0080E08093B0005E
:1001080082E08093B10081E0809370008FEF84B922
:1001180087B983E080628093900081E080939100AA
:100128008FEF8DB980E080939A0080939B0080E0E8
:100138008093A00082E08093A10081E08093720008
:1001480080E08093200182E08093210181E0809308
:10015800730080EF80930A018FEF80BB81B98827F5
:1001680081BB82B988E08EB98F939F9390E09030DD
:1001780009F488E31CD72BD79F918F9142D78F938F
:100188009F9390E0903009F488E311D720D79F918E
:100198008F912ED78F939F9390E0903009F488E346
:1001A80006D715D79F918F918F939F9390E09030AA
:1001B80009F488E3FCD60BD79F918F918F939F9377
:1001C80090E0903009F488E0F2D601D79F918F91A2
:1001D8008F939F9390E0903009F481E0E8D6F7D6AA
:1001E8009F918F918F939F9390E0903009F486E0D0
:1001F800DED6EDD69F918F918F939F9390E09030AC
:1002080009F48CE0D4D6E3D69F918F912227332727
:10021800552744278F93CF93DF93C3E2D2E08827F3
:1002280089938883DF91CF918F918F93CF93DF93B9
:10023800C0E2D2E0882789938883DF91CF918F919C
:10024800882780931D0280931E0280931602809354
:1002580017028093180280932602809319028093D4
:10026800220280931F028827809300028093010254
:100278008093020280930302809304028093050214
:1002880080930602809307028093080280930902F4
:100298008FEF80930A0280930B0280930C02809365
:1002A8000D0280930E0280930F02809310028093B8
:1002B8001102809312028093130280E0809314024B
:1002C8008093150289E0809328028093290230E008
:1002D80000E01FEF20E080E0809316028093170271
:1002E80080931A0280931B0280931C027894B2C1F7
:1002F800AF939F938F938FB78F938091260280300F
:1003080021F080E0809326021FC081E080932602BE
:1003180090E887B189238030B9F0AAE08F939F9342
:10032800CCD59AEE80E6AA95A030D1F79F918F910F
:1003380090E887B18923803039F0809117028130A5
:1003480019F481E0809319028F918FBF8F919F914B
:10035800AF911895AF939F938F938FB78F93809199
:100368002702803021F080E08093270226C081E0B8
:100378008093270290E887B189238030F1F0AAE0C2
:100388008F939F939AD59AEE80E6AA95A030D1F7DD
:100398009F918F9190E887B18923803071F0203048
:1003A80009F00BC080911702813021F081E0809321
:1003B800170203C082E0809319028F918FBF8F913B
:1003C8009F91AF9118958F939F938FB78F93DF93DA
:1003D800CF93AF93203009F180911602803009F055
:1003E8001CC0809120029091210201968830ADE3D3
:1003F8009A0779F4A1E0A09316028F93CF93DF9325
:10040800C0E2D2E0882789938883DF91CF918F91CA
:1004180004C08093200290932102AF91CF91DF9185
:100428008F918FBF9F918F9118958F938FB78F93CF
:1004380080911B02813021F080E080931F0218C058
:10044800809122028395833009F010C080911F02A9
:10045800803021F080E080931F0203C08CE08093FD
:100468001F0285B988278093220202C08093220246
:100478008F918FBF8F9118958F939F938FB78F937D
:10048800AF9380912302909124020196803DA3E0CE
:100498009A0709F401C044C0303031F0313031F0EE
:1004A800323061F0333061F098E012C090911E0252
:1004B800903011F090E00CC094E00AC094E008C0BD
:1004C80090911E02903011F090E002C098E000C0B8
:1004D800203051F02F3F51F080911D02803011F0F3
:1004E800880F0CC081E00AC080E041F080911D02B5
:1004F800803011F0869502C080E800C088B98093EA
:100508001D0295B990931E028F93CF93DF93C3E298
:10051800D2E0882789938883DF91CF918F9104C097
:100528008093230290932402AF918F918FBF9F9164
:100538008F9118958F938FB78F939F938091170200
:10054800803009F46CC0CAD380911902813019F047
:100558008230B9F03DC0809118028130C9F1C4F1F0
:1005680084305CF480E08093190285E0809318025F
:1005780088278093250233E052C080E080931902D7
:1005880027C0809118028130F9F0F4F0843011F01E
:100598000CF00DC0833024F480E08093190218C059
:1005A80083E08093180280E08093190211C0809143
:1005B80025029EE1981B9093250280E08093180203
:1005C80080E08093190204C080E08093190200C083
:1005D8008091250283958E3109F01FC08091180201
:1005E800803031F0853041F0843021F032E00CC0A9
:1005F80031E00AC033E008C08FEF8093180280E032
:100608008093170230E000C0809118028395809390
:10061800180288278093250202C0809325029F91A3
:100628008F918FBF8F9118958F938FB78F9333309A
:1006380041F0313031F080E080939A0080939B0044
:1006480005C08FEF80939A0080939B008F918FBF96
:100658008F91189543D380911A02813009F4E3C031
:1006680052D38F939F9390E0903009F480E89FD401
:10067800AED49F918F918F939F9390E0903009F41F
:1006880083E49CD4A4D49F918F918F939F9390E0FF
:10069800903009F485E592D49AD49F918F918F93E5
:1006A8009F9390E0903009F482E588D490D49F918C
:1006B8008F918F939F9390E0903009F482E57ED4D8
:1006C80086D49F918F918F939F9390E0903009F4F7
:1006D80085E474D47CD49F918F918F939F9390E0FD
:1006E800903009F48EE46AD472D49F918F918F93DD
:1006F8009F9390E0903009F484E560D468D49F918A
:100708008F918F939F9390E0903009F480E256D4B4
:100718005ED49F918F918F939F9390E0903009F4CE
:1007280086E44CD454D49F918F918F939F9390E0FB
:10073800903009F48CE442D44AD49F918F918F93DE
:100748009F9390E0903009F48FE438D440D49F917F
:100758008F918F939F9390E0903009F48FE42ED47B
:1007680036D49F918F918F939F9390E0903009F4A6
:1007780082E524D42CD49F918F918F939F9390E0FE
:10078800903009F48AE31AD422D49F918F918F93E1
:100798009F9390E0903009F488EA09D418D49F9187
:1007A8008F91802F805D8F939F9391E0903009F413
:1007B80082E704D40CD49F918F91802E9BD3802DF7
:1007C800813009F00BC08F938FB78F778FBF8F91D0
:1007D80081E08093170220E07894AAD2802E99D3E2
:1007E800011709F002C01FEF20E01F3F09F00CC0FD
:1007F8006BD31F3F09F40FC08F938FB78F778FBFCD
:100808008F918DD2789407C08F938FB78F778FBFD2
:100818008F9185D278948F938FB78F778FBF8F9171
:100828009AD2789417CF80911702813021F481E011
:10083800809319027DD21F3F21F01F9381E080939E
:100848001C0261D28F939F9390E0903009F480E866
:10085800AED3BDD39F918F918F939F9390E09030AB
:1008680009F483E4ABD3B3D39F918F918F939F9374
:1008780090E0903009F485E5A1D3A9D39F918F9199
:100888008F939F9390E0903009F482E597D39FD39C
:100898009F918F918F939F9390E0903009F482E518
:1008A8008DD395D39F918F918F939F9390E09030A4
:1008B80009F485E483D38BD39F918F918F939F9372
:1008C80090E0903009F48EE479D381D39F918F9191
:1008D8008F939F9390E0903009F484E56FD377D39A
:1008E8009F918F918F939F9390E0903009F480E2CD
:1008F80065D36DD39F918F918F939F9390E09030A4
:1009080009F486E45BD363D39F918F918F939F9370
:1009180090E0903009F48CE451D359D39F918F9192
:100928008F939F9390E0903009F48FE447D34FD38F
:100938009F918F918F939F9390E0903009F48FE46B
:100948003DD345D39F918F918F939F9390E09030A3
:1009580009F482E533D33BD39F918F918F939F9373
:1009680090E0903009F48AE329D331D39F918F9195
:100978008F939F9390E0903009F488EA18D327D397
:100988009F918F91802F805D8F939F9391E09030FE
:1009980009F482E713D31BD39F918F91003051F054
:1009A8008F938FB78F778FBF8F9110E0B8D17894DE
:1009B80095D147CF20E081E080931702B9D180E03C
:1009C8008093700081E080931B028F939F9390E047
:1009D800903009F488E3EBD2FAD29F918F9111D32A
:1009E8008F939F9390E0903009F488E3E0D2EFD2A0
:1009F8009F918F91FDD28F939F9390E0903009F44F
:100A080088E3D5D2E4D29F918F918F939F9390E002
:100A1800903009F488E3CBD2DAD29F918F918F93EB
:100A28009F9390E0903009F488E0C1D2D0D29F9192
:100A38008F918F939F9390E0903009F481E0B7D223
:100A4800C6D29F918F918F939F9390E0903009F435
:100A580086E0ADD2BCD29F918F918F939F9390E007
:100A6800903009F48CE0A3D2B2D29F918F918F93EA
:100A78009F9390E0903009F484E899D2A8D29F918E
:100A88008F918F939F9390E0903009F485E496D2EC
:100A98009ED29F918F918F939F9390E0903009F40D
:100AA8008DE68CD294D29F918F918F939F9390E0F3
:100AB800903009F485E682D28AD29F918F918F93E4
:100AC8009F9390E0903009F482E778D280D29F918A
:100AD8008F918F939F9390E0903009F487E66ED2C0
:100AE80076D29F918F918F939F9390E0903009F4E5
:100AF80085E664D26CD29F918F918F939F9390E0FB
:100B0800903009F48EE65AD262D29F918F918F93DA
:100B18009F9390E0903009F483E650D258D29F9189
:100B28008F918F939F9390E0903009F489E746D294
:100B38004ED29F918F918F939F9390E0903009F4BC
:100B48008CEA35D244D29F918F918F939F9390E0F6
:100B5800903009F483E432D23AD29F918F918F93E7
:100B68009F9390E0903009F481E628D230D29F918B
:100B78008F918F939F9390E0903009F48CE61ED26A
:100B880026D29F918F918F939F9390E0903009F494
:100B98008CE614D21CD29F918F918F939F9390E0F3
:100BA800903009F480E20AD212D29F918F918F93EC
:100BB8009F9390E0903009F480E300D208D29F918F
:100BC8008F918F939F9390E0903009F480E3F6D152
:100BD800FED19F918F918F939F9390E0903009F46D
:100BE80080E3ECD1F4D19F918F9129D180911A02A1
:100BF800813009F4FACF80911C02813009F004C0D9
:100C08001F9180E080931C0280E080931B0281E0AA
:100C1800809370008F939F9390E0903009F488E35D
:100C2800C6D1D5D19F918F91ECD18F939F9390E0AE
:100C3800903009F488E3BBD1CAD19F918F91D8D164
:100C48008F939F9390E0903009F488E3B0D1BFD19F
:100C58009F918F918F939F9390E0903009F488E350
:100C6800A6D1B5D19F918F918F939F9390E09030AB
:100C780009F488E09CD1ABD19F918F918F939F937A
:100C880090E0903009F481E092D1A1D19F918F91A9
:100C98008F939F9390E0903009F486E088D197D1A4
:100CA8009F918F918F939F9390E0903009F48CE0FF
:100CB8007ED18DD19F918F91CDCC8F938FB78F7728
:100CC8008FBF8F9118B91F3F812E23D18F938FB774
:100CD8008F778FBF8F913FD07894EFCF8F938DB35D
:100CE800203019F08070807002C0816082608DBBF6
:100CF80080916900323011F0886001C0837F809351
:100D080069008F9108958F9380911602813009F0C0
:100D180004C0020F80E0809316028F910895101787
:100D28001CF021F021E003C02FEF01C020E008955E
:100D38008F9380911A02813041F08F938FB78F770C
:100D48008FBF8F9108D0789400C0809117028130AE
:100D580081F38F9108957F935F936F934F938F9350
:100D68009F937FEE5527543034F089E08093280212
:100D7800809329022BC070930B018FEF90E09DD0D8
:100D8800809109018F708F30E9F061E04427443089
:100D9800C9F0982F962309F012C080912802851770
:100DA80029F0509328024093290217C08091290204
:100DB800841761F050932802409329020EC043958E
:100DC800660FE5CF5395770F7395CDCF9F918F9190
:100DD8004F916F915F917F9108955330C1F04330E7
:100DE800B9F0842F880F840F850F83951F3F882EB5
:100DF80081D0902D913009F421C0882E99D0B2E08D
:100E0800A0E0A80F80E0B81F81E08C9317C016C03F
:100E1800503021F0513031F000C010C081E0809393
:100E28001A020CC090910002913009F407C080E0CA
:100E3800882E7ED081E08093000200C0C7CF7F93C8
:100E48005F936F934F938F939F937FEE50E07093D0
:100E58000B01809109018F708F3031F489E0809304
:100E680028028093290212C068E043E0982F962355
:100E780009F00CC0809128029091290285179407E7
:100E880029F0509328024093290207C09F918F911F
:100E98004F916F915F917F91089580911A028130EF
:100EA80031F081E080931A0280931B02EFCF80E03B
:100EB80080931A0280931B02E9CF815090408030C2
:100EC800E1F79030D1F708958F939F9341D0902DFB
:100ED8009F3F09F40BC00F92802C0CD0802D8130DD
:100EE80011F00F90F3CF0F90102D01C01FEF9F91BD
:100EF8008F910895AF93BF938F93882DB2E0A0E0B0
:100F0800A80F80E0B81F8C91082E8F91BF91AF91E8
:100F18000895AF93BF938F93882DA0E0B2E0A80FF8
:100F280080E0B81F80E08C938F91BF91AF910895B6
:100F3800AF93BF938F93AAE0B2E080911502A80FF8
:100F48008827B81F8C921BD08F91BF91AF910895BD
:100F5800AF93BF938F93AF93AAE0B2E0809114024E
:100F6800A80F8827B81F8C91082E8F3F19F08FEF94
:100F78008C9311D0AF918F91BF91AF9108958F93BA
:100F88008091150283958A300CF401C080E080932B
:100F980015028F9108958F938091140283958A305A
:100FA8000CF401C080E0809314028F91089581BBF6
:100FB8001FD0169A1DD016981BD0089581BB179A7A
:100FC80017D0169A15D0169813D0179808958F939E
:100FD800882780BB81BB159A0BD0169A09D08FB190
:100FE800169887FDF9CF15988FEF80BB8F910895DC
:100FF8008F939F939FE08CE90197F1F79F918F91D1
:0E1008000895F6DFF5DFF4DFF3DFF2DF089581
:00000001FF
